:040000008031C4285F
:10000800803120007F08F2000B1DC028FF30CE078A
:10001800031CCF034F084E04031D5A28C830CE00D6
:10002800CF013308320403192B28FF30B207031C11
:10003800B30333083204031D2B28BD01863167261C
:100048008031863159268031C101C201C20A310886
:10005800300403193928FF30B007031CB1033108F5
:100068003004031D3928BA01C10142080319572871
:100078005108803AFF0080307F02031D4528013077
:100088005002031C4F282200FF300C142000D00718
:10009800031CD1035A282200C8300C102000D000BD
:1000A800D101C2015A28C830D000D101B60A0319BB
:1000B800B70A3708803AFF0080307F02031D6628A0
:1000C80064303602031C6B282000B601B7012000FB
:1000D8003708803AFF0080307F02031D75284B30B7
:1000E800360203187E2820003D08031984282200C0
:1000F8008C14842820003D080319842822008C10C1
:1001080020003A08031996283708803AFF00803003
:100118007F02031D912846303602031896282200D4
:100128000C15982822000C1120002B082A0403190A
:10013800A228FF30AA07031CAB03BF286130AA001E
:10014800AB01BD08031DAC28863159268031BF2874
:1001580052080319B2288B31FB2380312000430851
:100168000319B9288031C720803120003E080319BF
:10017800BF288D31C6250B1172082000FF00090029
:1001880088018331CF2B3A080319CD2822000C159A
:10019800CF2822000C112000530803190D2BD40876
:1001A800031D0D2BD508031D0D2BD608031D0D2B84
:1001B8007108803AFF0080307F02031DE528643013
:1001C80070020318392922008C17EC2822008C139E
:1001D8000C148C120C128C11F00A0319F10A080085
:1001E80054080319102BD508031D102BD608031D1E
:1001F800102B7108803AFF0080307F02031D06290A
:10020800643070020318392922008C135C29D40841
:10021800031D132B55080319132BD608031D132B85
:100228007108803AFF0080307F02031D1D29643069
:1002380070020318392922008C138229D408031D5F
:10024800162BD508031D162B56080319162B7108F3
:10025800803AFF0080307F02031D34296430700229
:100268000318392922008C13A32971088F31FB2721
:100278008031031D082B8230072BD608031D1F2B46
:100288007108803AFF0080307F02031D4D296430D9
:100298007002031CE7287108803AFF0080307F0253
:1002A800031D5829C830700203185F2922008C17D3
:1002B8000C148C16EE28C0238031031C0829152A3B
:1002C80055080319252BD608031D252B7108803ADC
:1002D800FF0080307F02031D732964307002031C05
:1002E800E7287108803AFF0080307F02031D7E29CD
:1002F800C83070020318C82922008C170C148C12FD
:10030800432AD508031D2B2B560803192B2B7108DC
:10031800803AFF0080307F02031D94296430700208
:10032800031CE7287108803AFF0080307F02031D14
:100338009F29C83070020318112A22008C170C1448
:100348008C12842A540803192E2B550803192E2BB6
:10035800D608031D2E2B7108803AFF0080307F02DB
:10036800031DB82964307002031C08297108803AFB
:10037800FF0080307F02031DC329C83070020318B4
:10038800C82922008C13412AC0238031031C1F294D
:10039800152A54080319312BD508031D312B56088B
:1003A8000319312B7108803AFF0080307F02031D4A
:1003B800DF2964307002031C08297108803AFF00A5
:1003C80080307F02031DEA29C83070020318112A01
:1003D80022008C13822AD408031D342B55080319D4
:1003E800342B56080319342B7108803AFF008030EB
:1003F8007F02031D012A64307002031C1F29710843
:10040800803AFF0080307F02031D0C2AC83070023A
:100418000318112A22008C13BB2AC0238031031C25
:1004280036297108803AFF0081307F02031D082BAE
:100438004A30072B7108803AFF0080307F02031D85
:10044800272A64307002031CE7287108803AFF00ED
:1004580080307F02031D322AC8307002031C5A29DB
:100468007108803AFF0081307F02031D3D2A2C303D
:1004780070020318452A22008C170C148C160C16CF
:10048800EF287108803AFF0081307F02031D4E2A51
:1004980090307002031CC5297108803AFF00813032
:1004A8007F02031D592AF4307002031C1F29012BF7
:1004B80056080319492B7108803AFF0080307F02E3
:1004C800031D682A64307002031CE7287108803A0B
:1004D800FF0080307F02031D732AC8307002031C9E
:1004E8005A297108803AFF0081307F02031D7E2A55
:1004F8002C3070020318862A22008C170C148C16D4
:100508000C128F2B7108803AFF0081307F02031D87
:100518008F2A90307002031CEC29F62A550803191B
:100528004F2B560803194F2B7108803AFF00803073
:100538007F02031DA12A64307002031CE72871089A
:10054800803AFF0080307F02031DAC2AC830700259
:10055800031C80297108803AFF0081307F02031D47
:10056800B72A2C3070020318EB2A22008C170C14BF
:100578008C128E2B54080319522B55080319522B31
:1005880056080319522B7108803AFF0080307F0209
:10059800031DD02A64307002031C08297108803AB0
:1005A800FF0080307F02031DDB2AC8307002031C65
:1005B800C5297108803AFF0081307F02031DE62AB1
:1005C8002C3070020318EB2A22008C138C2B710834
:1005D800803AFF0081307F02031DF42A90307002B8
:1005E800031C0E2A7108803AFF0081307F02031D28
:1005F800FF2AF4307002031C36297108CA2380319F
:10060800031D082B12307002031CEA28F001F101C7
:100618000800D3080319F428D30803190B29D308B1
:1006280003192229530803191F2B540803191F2BD8
:10063800D5080319412953080319252BD408031990
:100648006429530803192B2BD40803198529D308C7
:100658000319A629D3080319CD29D3080319EF29AB
:1006680053080319402B54080319402B5508031944
:10067800402BD60803191E2A53080319492B54087E
:100688000319492BD50803195C2A530803194F2B62
:10069800D4080319922AD3080319BE2A5308031948
:1006A800B92B54080319B92B55080319B92B560847
:1006B8000319B92B7108803AFF0080307F02031DAF
:1006C800672B64307002031CE7287108803AFF002A
:1006D80080307F02031D722BC8307002031C5A2918
:1006E8007108803AFF0081307F02031D7D2B2C307A
:1006F8007002031C3F2A7108803AFF0081307F0294
:10070800031D882B903070020318912B22008C1740
:100718000C148C160C168C15F0287108803AFF0002
:1007280081307F02031D9A2BF4307002031CE82AE3
:100738007108803AFF0082307F02031DA52B5830D4
:100748007002031C0E2A7108803AFF0082307F0273
:10075800031DB02BBC307002031C36297108CA2354
:100768008031031D082BDA30072B22008C130C1064
:100778008C120C128C1108007108803AFF0081302D
:100788007F02031D08002C3070020800803AFF0029
:1007980082307F0208002030F001F101840000302F
:1007A80085002430863172268331C830CE00CF01CF
:1007B800D0000130D101D200D300D400D500D6003A
:1007C8002000E62B68302100990019308E170E178B
:1007D80023009B0090309D0024309E004030210073
:1007E8008C0023008C01E13021008D0023008D0155
:1007F800BF3021008E00A0308B0023009F010C30F9
:100808009B009C0108302100950024008D018B1766
:100818008B1622008C018D018E012000C401C40AB0
:10082800052683312000A0003F3A031D392C2130D2
:10083800C501C60124268331052683312000CB005B
:100848007E3A031D3C2CC701C8014708203E86009C
:1008580087018101C70A0319C80A00304802053018
:100868000319470203183C2C292CC501C50AC601E7
:100878004608CD004508CC0000304D02053003196C
:100888004C0203185B2C4C08203E86008701052685
:100898008331810020004C08203E86008701010832
:1008A8003F3A03191B2CCC0A0319CD0A402CC90165
:1008B800CA014908203E86008701010824268331A1
:1008C800652C662C64002000C90A0319CA0A003086
:1008D8004A02053003194902031C5D2C05268331A1
:1008E8002000CB003F3A03191B2C4B082B3A031D61
:1008F800802C2008BF00C401C408031D142C3F0825
:1009080003198C2CC101C10A3F08593A031DC201C1
:1009180023009D18912C1D1D992C1D082000C00036
:1009280023001D129D131D169D1720003F08593ADC
:10093800031DAC2C2200532683313D08031DAC2C2B
:10094800C208031DAC2CBD0122008C108C130C10A6
:1009580020003F08413A031DB72C2B268331BC01E8
:10096800BC0A422683313F08423A031DC52C0B2698
:10097800833116268331BA0122000C112000C201EE
:10098800C20A3F08433A031DE12C3A080319CF2C49
:1009980022003C2683312008443A031DD52C22002E
:1009A8008D1122008D100D118D110D162000BC081F
:1009B800031DE12C22008C108C1320003F08443AC0
:1009C800031DFE2C3A080319EC2C22003C26833127
:1009D8002008433A031DF22C22000D122000BC0807
:1009E800031DF92C22008C108C1322008D100D127F
:1009F8008D150D1520003F08453A031D0C2D2200CA
:100A0800532683313B0803190C2D220047268331D6
:100A18003F08463A031D282D3A080319162D2200CF
:100A28003C2683312008473A031D1C2D22000D1156
:100A38002000BC08031D232D22008C108C132200DB
:100A48008D140D120D118D1120003F08473A031D1A
:100A5800452D3A080319332D22003C2683312008FE
:100A6800463A031D392D22008D102000BC08031DB5
:100A7800402D22008C108C1322008D100D120D15A4
:100A88008D1120003F08483A031D542D22008D1077
:100A98000D1120003B080319542D220047268331ED
:100AA8003F08493A031D6C2D20084A3A03196C2D5A
:100AB8000B268331162683314D2683318C148C17EF
:100AC8000C1420003A0803196C2D22003C268331AF
:100AD8003F084A3A031D872D2008493A0319872DF4
:100AE8000B268331162683314D2683312000BD0124
:100AF80022008C108C130C1420003A080319872D3F
:100B080022003C2683313F084B3A031D992D8B1751
:100B1800BD014D2683318C108C130C1020003B082E
:100B28000319992D2200472683313F084C3A031DAB
:100B3800A12DD301D30A422683313F084D3A031D24
:100B4800A82DD301422683313F084E3A031DB02D0C
:100B5800D401D40A422683313F084F3A031DB72DEA
:100B6800D401422683313F08503A031DBF2DD501D9
:100B7800D50A422683313F08513A031DC62DD501B7
:100B8800422683313F08523A031DCE2DD601D60A9C
:100B9800422683313F08533A031DD52DD6014226FC
:100BA80083313F08543A031DDF2DD201D20AC30115
:100BB800BE01422683313F08553A031DE92DD20173
:100BC800C301C30ABE01422683313F08563A031DBA
:100BD800F32DD201C301BE01BE0A422683313F086C
:100BE800573A031DFD2DBA01BA0A4830B0008A30C1
:100BF800B1003F08583A031D112CBA0122000C110C
:100C0800112C2000911E052E230019080800BD0193
:100C1800BC0122008C100C108C130C108C120C12BE
:100C28008C1108002000D301D401D501D601AC01F4
:100C3800AD01B401B501F001F101B801B901080035
:100C4800F300111E252E730823009A000800BD0129
:100C5800BD0AD301D30AD401D40AD501D50AD601D5
:100C6800D60AD201D20AC301BE01BC01BC0A0800DF
:100C78000C112000BA01BB01BB0A08004830B200C1
:100C88008A30B30008000C152000BA01BA0ABB016B
:100C9800080022008D100D120D118D1108000D1283
:100CA8008D118D100D11200008002000D301D401F2
:100CB800D501D601AC01AD01B401B501F001F101D6
:100CC800B801B9010800BD01BC0122008C100C104C
:100CD8008C130C108C120C128C110800640080010B
:080CE8000131890B732E003469
:1017F6003A080319012C22000C15032C22000C11A7
:10180600200053080319D82C54080319D82C55085E
:101816000319D82C56080319D82C2D08803AFF0036
:1018260080307F02031D192C64302C020318612CB2
:1018360022008C17572C2200C1258B314B2CB72543
:101846008B31031C1B2C20002D08803AFF008030B2
:101856007F02031D302CC8302C020318D42C220022
:10186600C1258B31662DB7258B31031C1B2C20001F
:101876002D08803AFF0080307F02031D442CC830BB
:101886002C020318D42C22008C130C148C120C126C
:101896008C152000AC0A0319AD0A0800B7258B3158
:1018A6000318612C22008C130C148C16652DB72599
:1018B6008B310318612C22008C17632D20002D0814
:1018C600803AFF0080307F02031D6B2CC8302C024B
:1018D600031C1E2CD42CD608031D112D2D08803A6E
:1018E600FF0080307F02031D7A2C64302C02031C1B
:1018F6005E2C20002D08803AFF0080307F02031DF9
:10190600862CC8302C02031C552CD42CD608031D5B
:101916001A2D2D08803AFF0080307F02031D952C7A
:1019260064302C02031C5E2C262CD508031D232DA7
:101936002D08803AFF0080307F02031DA42C6430FE
:101946002C02031C5E2C3A2CD608031D2C2D2D08C8
:10195600803AFF0080307F02031DB32C64302C02D6
:10196600031C552C262CD508031D352D2D08803A31
:10197600FF0080307F02031DC22C64302C02031C42
:10198600552C3A2CD408031D3E2D2D08803AFF0015
:1019960080307F02031DD12C64302C02031C322CB4
:1019A6003A2C2000AC01AD01080053080319E42CC1
:1019B60054080319E42C55080319E42CD608031916
:1019C600222C53080319F02C54080319F02C56083E
:1019D6000319F02CD5080319362C54080319FC2CCE
:1019E60055080319FC2C56080319FC2CD3080319B7
:1019F600512C53080319082D55080319082D5608AC
:101A06000319082DD40803195A2C53080319112D4C
:101A160054080319112DD50803196E2C5308031900
:101A26001A2D550803191A2DD4080319892C5308A1
:101A36000319232D56080319232DD4080319982CAE
:101A4600540803192C2D550803192C2DD3080319F6
:101A5600A72C54080319352D56080319352DD3081C
:101A66000319B62C550803193E2D560803193E2DA9
:101A7600D3080319C52C53080319682DD408031D70
:101A8600682DD508031D682DD608031D682D2D0861
:101A9600803AFF0080307F02031D532D64302C02F4
:101AA600031C5E2C20002D08803AFF0080307F0248
:101AB600031D5F2D82302C020318D42C22008C13B8
:101AC6000C148C120C128C114C2C54080319802DFA
:101AD600D308031D802DD508031D802DD608031DB0
:101AE600802D2D08803AFF0080307F02031D7D2D5A
:101AF60064302C02031C552C552D55080319982DBE
:101B0600D308031D982DD408031D982DD608031D50
:101B1600982D2D08803AFF0080307F02031D952DF9
:101B260064302C02031C322C552D56080319B02D97
:101B3600D308031DB02DD408031DB02DD508031DF1
:101B4600B02D2D08803AFF0080307F02031DAD2D99
:101B560064302C02031C462C552D22008C130C10CD
:101B66008C120C128C1108002D08803AFF00803070
:101B76007F02031D080064302C0208008C130C142D
:101B86008C120C1608003A080319CC2D22000C15ED
:101B9600CE2D22000C112000530803195B2FD40808
:101BA600031D5B2FD508031D5B2FD608031D5B2F76
:101BB6003908803AFF0080307F02031DE42D0A3089
:101BC60038020318572F2000EB278D310318D72F23
:101BD60022008C17F02D22008C130C148C120C1280
:101BE6008C112000B40A0319B50A08005408031919
:101BF6005E2FD508031D5E2FD608031D5E2F3908FC
:101C0600FB278D31031D092E0A3038020318572F82
:101C16002000EB278D310318D72F22008C130C14CC
:101C26008C16F22DD408031D612F55080319612F58
:101C3600D608031D612F3908FB278D31031D252E7C
:101C46000A3038020318572F2000EB278D3103186E
:101C5600D72F22008D31C1258D31F32DD408031DD8
:101C6600642FD508031D642F56080319642F3908FD
:101C7600FB278D31031D412E0A3038020318572FDA
:101C86002000EB278D310318D72F22008C130C145C
:101C96008C120C128C15F42DD608031D6D2F3908E5
:101CA600803AFF0080307F02031D5B2E0A30380227
:101CB600031CE62D2000F5278D31031D092E143057
:101CC600082E55080319732FD608031D732F3908DC
:101CD600803AFF0080307F02031D732E0A303802DF
:101CE600031CE62D9C2ED508031D792F56080319D3
:101CF600792F3908803AFF0080307F02031D852E38
:101D06000A303802031CE62DB72E540803197C2F1F
:101D1600550803197C2FD608031D7C2F3908803AF5
:101D2600FF0080307F02031D9A2E0A303802031C02
:101D36000B2E2000F5278D31031D252E1430242E61
:101D4600540803197F2FD508031D7F2F5608031942
:101D56007F2F3908803AFF0080307F02031DB52EA1
:101D66000A303802031C0B2E2000F5278D31031D87
:101D7600412E1430402ED408031D822F5508031916
:101D8600822F56080319822F3908803AFF008030C7
:101D96007F02031DD02E0A303802031C272E200096
:101DA600F5278D31031DD02F1430CF2FF5278D3118
:101DB600031DDF2E0A303802031CE62D2000F5270E
:101DC6008D31031DE82E14303802031C0B2E200023
:101DD600F5278D31031D252E1E30242E5608031996
:101DE600972F3908803AFF0080307F02031DFD2EB1
:101DF6000A303802031CE62D2000F5278D31031D1D
:101E0600062F14303802031C0B2E382F55080319E1
:101E16009D2F560803199D2F3908803AFF00803000
:101E26007F02031D182F0A303802031CE62D2F2FC0
:101E360054080319A02F55080319A02F5608031993
:101E4600A02F3908803AFF0080307F02031D2D2F16
:101E56000A303802031C0B2E2000F5278D31031D96
:101E6600362F14303802031C272E2000F5278D311B
:101E7600031DD02F1E30CF2F2000EB278D31031CE2
:101E8600EE2D20003508803AFF0080307F02031DCA
:101E96004E2F1E303402031C2C2E2000B401B50137
:101EA600B80A0319B90A08002000B801B9010800E8
:101EB600D3080319F92DD3080319152ED3080319CE
:101EC600312E530803196D2F540803196D2FD508A9
:101ED60003194F2E53080319732FD4080319642EC0
:101EE60053080319792FD4080319762ED30803193A
:101EF600882ED3080319A32ED3080319BE2E530820
:101F060003198E2F540803198E2F550803198E2F87
:101F1600D6080319D92E53080319972F5408031905
:101F2600972FD5080319F12E530803199D2FD408AE
:101F36000319092FD30803191B2F53080319E42F7C
:101F460054080319E42F55080319E42F56080319FA
:101F5600E42F3908803AFF0080307F02031DB52F39
:101F66000A303802031CE62D2000F5278D31031DAB
:101F7600BE2F14303802031C0B2E2000F5278D319E
:101F8600031DC72F1E303802031C3F2F2000F527E4
:101F96008D31031DD02F283038020318572F20000B
:101FA600EB278D31031C482E20003508803AFF00B0
:101FB60080307F02031DE12F1E303402031CEE2DFC
:101FC600502F22008C130C108C120C128C1108004E
:101FD6003508803AFF0080307F02031D0800143068
:101FE600340208003908803AFF0080307F0208007A
:0A1FF600803AFF0080307F020800EF
:020000040001F9
:04000E0024F9FFDDF5
:00000001FF
