:04000000803184289F
:10000800803120007F08F2000B1D8028FF30D407C4
:10001800031CD50355085404031D4428C830D400D4
:10002800D5013108300403192328FF30B007031C19
:10003800B10331083004031D2328BA01C801490857
:10004800031941285708803AFF0080307F02031DBA
:100058002F2801305602031C39282200FF300C14C7
:100068002000D607031CD70344282200C8300C10F0
:100078002000D600D701C9014428C830D600D701CE
:10008800B40A0319B50A3508803AFF0080307F02A8
:10009800031D502864303402031C55282000B40185
:1000A800B50120003A08031967283508803AFF008F
:1000B80080307F02031D6228463034020318672807
:1000C80022000C15692822000C1120002B082A0494
:1000D80003197328FF30AA07031CAB037F2861307C
:1000E800AA00AB01C208031D7D2883316D2380312E
:1000F8007F2882319E220B1172082000FF00090020
:100108008801803187282030F001F1018400003017
:1001180085002A3083317D238031C830D400D50151
:10012800D6002830D701D8000130D90020009C28FB
:1001380068302100990019308E170E1723009B0094
:1001480090309D0024309E00403021008C00230018
:100158008C01E13021008D0023008D01BF3021008A
:100168008E00A0308B0023009F010C309B009C0167
:1001780008302100950024008D018B178B16220072
:100188008C018D018E012000CA01CA0A5F228031CC
:100198002000A0003F3A031DEF282130CB01CC01FD
:1001A800792280315F2280312000D1007E3A031D00
:1001B800F228CD01CE014D08203E8600870181013D
:1001C800CD0A0319CE0A00304E02053003194D023C
:1001D8000318F228DF28CB01CB0ACC014C08D30046
:1001E8004B08D2000030530205300319520203189D
:1001F80011295208203E860087015F228031810044
:1002080020005208203E8600870101083F3A031962
:10021800D128D20A0319D30AF628CF01D0014F08F2
:10022800203E860087010108792280311B291C297C
:1002380064002000CF0A0319D00A003050020530AC
:1002480003194F02031C13295F2280312000D100BB
:100258003F3A0319D12851082B3A031D36292008A3
:10026800F100CA01CA08031DCA28710803194229E6
:10027800C801C80A7108593A031DC90123009D180D
:1002880047291D1D4F291D082000C70023001D12E6
:100298009D131D169D177108593A031D61292200E7
:1002A800982280314208031D6129C908031D61296C
:1002B800C20122008C108C130C107108413A031DE6
:1002C800692980228031C001C00A7108423A031DA1
:1002D80077296522803175228031BA0122000C11FC
:1002E8002000C901C90A7108433A031D9429200056
:1002F8003A08031982292200862280312008443ACC
:10030800031D882922008D1122008D100D118D11D9
:100318000D162000C008031D942922008C108C1390
:100328007108443A031DB12920003A0803199F298E
:100338002200862280312008433A031DA529220085
:100348000D122000C008031DAC2922008C108C134C
:1003580022008D100D128D150D157108453A031DDB
:10036800BE292200982280313B080319BE292200A9
:10037800922280317108463A031DDB2920003A0891
:100388000319C9292200862280312008473A031D13
:10039800CF2922000D112000C008031DD6292200F4
:1003A8008C108C1322008D140D120D118D117108F3
:1003B800473A031DF82920003A080319E6292200C4
:1003C800862280312008463A031DEC2922008D1030
:1003D8002000C008031DF32922008C108C13220072
:1003E8008D100D120D158D117108483A031D062A3E
:1003F80022008D100D1120003B080319062A220047
:10040800922280317108493A031D1F2A20002008D2
:100418004A3A03191F2A65228031752280318C22BD
:1004280080318C178C128C1420003A0803191F2A6B
:1004380022008622803171084A3A031D382A20009A
:100448002008493A0319382A6522803175228031FB
:100458008C2280318C138C168C1020003A080319DA
:10046800382A22008622803171084B3A031D4B2A14
:100478008B172000C2018C2280318C108C138C12B7
:1004880020003B0803194B2A220092228031710870
:10049800573A031D562A2000BA01BA0A4830B0005C
:1004A8008A30B1007108583A031DC7282000BA01E4
:1004B80022000C11C7282000911E5F2A230019086A
:1004C80008002000C201C00122008C100C108C13FF
:1004D8000C108C120C128C11F00128302000D8005E
:1004E8000800F0012830D8000800F300111E7A2A0D
:1004F800730823009A0008002000C201C20AC00144
:10050800C00A08000C112000BA01BB01BB0A080090
:1005180022008D100D120D118D1108000C152000F0
:10052800BA01BA0ABB0108000D128D118D100D1108
:100538002000080058080319A32AD803B82AF00A8B
:1005480078307002031CB62AF00141080319B62A54
:10055800C10BB62AC2015E2382316D238231C801E4
:10056800C901C90A2830D800043070020318C02A0B
:1005780022008C138C16712B083070020318C82ABD
:1005880022008C138C16792B0C3070020318D32A96
:1005980022008C178C128C150C128C140800103049
:1005A8007002031CC42A18307002031CBC2A1C30B9
:1005B8007002031CC42A20307002031CCC2A243089
:1005C8007002031CC42A28307002031CBC2A303075
:1005D80070020318F32A22008C138C16752B343002
:1005E80070020318FB2A22008C138C12712B3830EE
:1005F8007002031CC42A3E3070020318142B220018
:100608000F308C138C128C14200058020318102BF6
:1006180022000C128C11080022000C168C15080000
:100628004230700203181C2B22008C138C12792B79
:1006380046307002031C032B4A307002031C182B2F
:100648005030700203182C2B22008C138C12752B3F
:10065800583070020318372B22008C178C128C111B
:100668000C128C1408005C307002031CCC2A623017
:1006780070020318512B22000F308C140C1220002A
:10068800580203184C2B22008C138C168C1108006E
:1006980022008C178C128C15080066307002031C1F
:1006A800CC2A6A307002031C3F2B6F307002031C87
:1006B800CC2AEF2AC201C00122008C100C108C1326
:1006C8000C108C120C128C11F00128302000D8006C
:1006D8000800F0012830D80008008C110C168C1482
:1006E80008008C110C128C1008008C150C168C1438
:0E06F8000800640080010131890B7E2B003464
:020000040001F9
:04000E0024F9FFDDF5
:00000001FF
